:100000000C9434000C9446000C9446000C9446006A
:100010000C9446000C9446000C9446000C94460048
:100020000C9446000C9446000C9446000C94460038
:100030000C9446000C9446000C9446000C94460028
:100040000C9446000C9446000C948C000C944600D2
:100050000C9446000C9446000C9446000C94460008
:100060000C9446000C94460011241FBECFEFD8E03C
:10007000DEBFCDBF21E0A0E0B1E001C01D92A13004
:10008000B207E1F70E946D000C94A4000C940000EC
:100090008FEF84B915B88AB18E7F8AB98AB1826030
:1000A0008AB91092C000E1ECF0E01082808188698A
:1000B0008083E2ECF0E0108280818660808387E6B6
:1000C00090E09093C5008093C40008959091C00083
:1000D00095FFFCCF8093C60008950E944800789455
:1000E0008DE40E94660085E60E9466008EE60E940E
:1000F000660083E70E94660081E60E9466008AE649
:100100000E94660085E60E9466008AE00E94660002
:100110008091000185B9FCCF1F920F920FB60F920C
:1001200011248F938091C600809300018091C000BC
:1001300085FFFCCF809100018093C6008F910F90C6
:0C0140000FBE0F901F901895F894FFCF91
:00000001FF
