:020000020000FC
:040000000C942A0032
:04000C000C946B00E5
:100040000C946100000CB69ECCDAFA0EFFCEEEF8EE
:1000500072BCF2E20FEF0DBF18E01DBFE4E4F0E068
:1000600000E80093610000E00093610000E000936D
:10007000C1000FEF0AB90FEF07B900E004BD05E0BA
:1000800005BD01E000936E0003E606BD03E00093AA
:100090006B0001E00093680000E010E020E030E039
:1000A00040E024912BB978945436F1F750E0E39571
:1000B00024912BB92F30C1F7E4E4F0E024912BB95F
:1000C000F3CF0F930FB70F93539513E616BD0F9110
:1000D0000FBF0F9118950F930FB70F9333B130FDEA
:1000E00003C0439548B905C033B131FD02C04A95FC
:0A00F00048B90F910FBF0F9118954A
:00000001FF
