S01200006C6162346338626974732E7372656362
S11300000C9434000C9451000C9451000C94510045
S11300100C9451000C9451000C9451000C94510018
S11300200C9451000C9451000C9451000C94510008
S11300300C9451000C9451000C9451000C945100F8
S11300400C9451000C9451000C9451000C945100E8
S11300500C9451000C94F4000C9451000C94510035
S11300600C9451000C94510011241FBECFEFD8E022
S1130070DEBFCDBF11E0A0E0B1E0E2E3F2E002C0F8
S113008005900D92A231B107D9F721E0A2E1B1E0C8
S113009001C01D92A731B207E1F70E9478000C94C9
S11300A017010C9400001092C1008FEF8AB91BB89D
S11300B08FE087B984B184B985B185B90895ECE737
S11300C0F0E01082808180648083808180628083FC
S11300D0808187608083EAE7F0E010828081886015
S11300E08083808187608083808180688083089595
S11300F0F8940E9453000E945F007894EAE7F0E0CD
S1130100808180648083E0911401F0E0E050FF4F2F
S113011080818BB98091120188B988B1826088B9D5
S11301202FEF8AE693E0215080409040E1F700C031
S11301300000E0911301F0E0E050FF4F80818BB9A3
S11301408091120188B988B1846088B92FEF8AE65A
S113015093E0215080409040E1F700C0000080917E
S113016016018BB98091120188B988B1816088B970
S11301702FEF8AE693E0215080409040E1F700C0E1
S113018000009091790080911601891720F480E194
S11301908093120102C01092120183B18093150161
S11301A090911001891709F4AECF8FE59AEE01976B
S11301B0F1F700C0000083B1809315019091100104
S11301C0891709F4A0CF189905C090911601915090
S11301D090931601199905C0909116019F5F909311
S11301E01601809310018FCF1F920F920FB60F92BA
S11301F011248F93EF93FF93E9E7F0E080818F70F0
S113020080931401808182958F7080931301EAE7B3
S1130210F0E0808180618083808180648083FF91AD
S1130220EF918F910F900FBE0F901F901895F89437
S1050230FFCFFA
S11302323F065B4F666D7D077F777C395E7971007F
S1050242FF00B7
S9030000FC
