:100000000C9434000C9446000C9446000C9446006A
:100010000C9446000C9446000C9446000C94460048
:100020000C9446000C9446000C9446000C94460038
:100030000C9446000C9446000C9446000C94460028
:100040000C9446000C9446000C9446000C94460018
:100050000C9446000C949D000C9446000C944600B1
:100060000C9446000C94460011241FBECFEFD8E03C
:10007000DEBFCDBF21E0A0E0B1E001C01D92A13004
:10008000B207E1F70E9485000C94B9000C940000BF
:100090001092C1008FEF8AB91BB884B1836084B914
:1000A000E0E8F0E0808182688083E1E8F0E0808130
:1000B0008A6180830895CF93DF93ACE7B0E01C9210
:1000C0008C9180648C938C9180628C938C918760EE
:1000D0008C93EAE7F0E010828081886080838081E1
:1000E0008660808380818068808310927B00CEE769
:1000F000D0E08881816088838C918E7F8C93808111
:1001000080648083DF91CF910895F8940E94480025
:100110000E945B007894EAE7F0E08081806480834D
:10012000809100012BE0829FC001112488519C4FD7
:100130009093890080938800F3CF1F920F920FB69F
:100140000F9211248F93EF93FF9380917900809306
:100150000001EAE7F0E08081806180838081806433
:100160008083FF91EF918F910F900FBE0F901F90A2
:060170001895F894FFCF82
:00000001FF
